:020000040800F2
:100000008806002029020008310200083302000897
:10001000350200083702000839020008000000001D
:100020000000000000000000000000003B0200088B
:100030003D020008000000003F020008ED04000837
:10004000430200084302000843020008430200087C
:10005000430200084302000843020008430200086C
:10006000430200084302000843020008430200085C
:10007000430200084302000843020008430200084C
:10008000430200084302000843020008430200083C
:10009000430200084302000843020008430200082C
:1000A000430200084302000843020008430200081C
:1000B000430200084302000843020008430200080C
:1000C00043020008430200084302000843020008FC
:1000D00043020008430200084302000843020008EC
:1000E00043020008430200084302000843020008DC
:1000F00043020008430200084302000843020008CC
:1001000043020008430200084302000843020008BB
:1001100043020008430200084302000843020008AB
:10012000430200084302000843020008430200089B
:10013000430200084302000843020008430200088B
:10014000430200084302000843020008430200087B
:10015000430200084302000843020008430200086B
:10016000430200084302000843020008430200085B
:100170004302000843020008430200080000000098
:10018000430200084302000800F002F800F03CF8C7
:100190000AA090E8000C82448344AAF10107DA45E2
:1001A00001D100F031F8AFF2090EBAE80F0013F0F8
:1001B000010F18BFFB1A43F001031847EC030000BE
:1001C0000C040000103A24BF78C878C1FAD852074E
:1001D00024BF30C830C144BF04680C6070470000C1
:1001E0000023002400250026103A28BF78C1FBD840
:1001F000520728BF30C148BF0B6070471FB500F0E1
:10020000CEF91FBD10B510BD00F037F81146FFF74D
:10021000F5FF00F0BFF900F055F803B4FFF7F2FF67
:1002200003BC00F059F8000009488047094800471E
:10023000FEE7FEE7FEE7FEE7FEE7FEE7FEE7FEE796
:10024000FEE7FEE704480549054A064B70470000F3
:10025000F5040008890100088800002088060020B5
:100260008802002088020020704770477047000015
:10027000004870472400002070477546FFF7F8FFDC
:10028000AE4605006946534620F00700854618B083
:1002900020B5FFF7D7FFBDE820404FF000064FF034
:1002A00000074FF000084FF0000B21F00701AC46AB
:1002B000ACE8C009ACE8C009ACE8C009ACE8C009CA
:1002C0008D46704710B50446AFF300802046BDE868
:1002D0001040FFF7A2BF000001491820ABBEFEE7A7
:1002E0002600020010B52E480068401C2C4908600A
:1002F0002C48006820B12B480068401E294908603E
:10030000002444E0284850F8240000283DD0264826
:1003100050F824000078C0F34000B0B3224850F8F1
:100320002400806840B1204850F824008068401EB6
:100330001D4951F8241088601B4850F8240080683B
:1003400018BB194B53F824301969174B53F8240084
:1003500053F82430DA689047134850F82400416875
:10036000114850F8240081600F4850F824000078AC
:1003700000F0010048B90C4850F82400007820F043
:100380000201094850F824000170601CC4B20648FC
:10039000001F0078A042B5DC00F0DEF810BD0000C0
:1003A00004000020000000201000002010B50D48BF
:1003B000006840F400700B4908600846006840F48B
:1003C000806008600846006840F480700860032080
:1003D00000F05EF80F2000F007F800F019F8002098
:1003E00010BD0000003C024070B50446074800689C
:1003F0004FF47A71B0FBF1F5284600F05DF8002269
:100400002146501E00F005F8002070BD08000020B5
:1004100070472DE9F05F80460D461646002700F034
:100420009DF8074639462A46334601F00700C0F1D9
:10043000070ABAF1040F02D94FF0040A01E0C0F133
:10044000070AD14600F1040ABAF1070F02D24FF0B1
:10045000000A01E0A0F1030AD4464FF0010A0AFAAB
:1004600009FAAAF1010A0AEA020A0AFA0CFA4FF09A
:10047000010B0BFA0CFBABF1010B0BEA030B4AEA85
:100480000B042146404600F071F8BDE8F09F0000E3
:1004900000BF00F00702064B19684FF6FF03194032
:1004A000044B0B4343EA0221014B196000BF704724
:1004B0000CED00E00000FA0570B504462546681E04
:1004C000B0F1807F01D301200FE0681E4FF0E021E2
:1004D00048610F214FF0FF3000F048F800204FF046
:1004E000E021886107200861002070BD10B5FFF78A
:1004F000F9FE10BD1448006840F47000124908600D
:100500001248006840F001001049086000200F49BF
:10051000083108600D4800680D4908400B49086023
:100520000C48091D0860081F006820F48020091F7E
:100530000860002005490C3108604FF00060024956
:10054000803908607047000088ED00E00038024004
:10055000FFFFF6FE103000247047000002480068DC
:10056000C0F30220704700000CED00E010B5002839
:1005700004DB0A07130E054A135406E00A07140E9B
:10058000034A00F00F031B1FD45410BD00E400E029
:1005900018ED00E010B5FFF709FF002010BD4FF087
:1005A0004070E1EE100A7047C80500080000002006
:1005B0000C000000C4010008D40500080C00002055
:1005C0007C060000E00100080000000000000000C0
:0405D0000024F4000F
:0400000508000229C4
:00000001FF
